:020000040802F0
:0C000000CDAB0900000000000000000073
:10040000000003205D120208A1100208AF100208CC
:10041000B5100208BB100208C1100208000000005D
:10042000000000000000000000000000C7100208EB
:10043000D510020800000000E3100208F1100208C5
:10044000AD120208AD120208AD120208AD12020888
:10045000AD120208AD120208AD120208AD12020878
:10046000AD120208AD120208AD120208AD12020868
:10047000AD120208AD120208AD120208AD12020858
:10048000AD120208AD120208AD120208AD12020848
:10049000AD120208AD120208AD120208AD12020838
:1004A000AD120208AD120208AD120208AD12020828
:1004B000AD120208AD120208AD120208AD12020818
:1004C000AD120208AD120208AD120208AD12020808
:1004D000AD120208AD120208AD120208AD120208F8
:1004E000AD120208AD120208AD120208AD120208E8
:1004F000AD120208AD120208AD120208AD120208D8
:10050000AD120208AD120208AD120208AD120208C7
:10051000AD120208AD120208AD120208AD120208B7
:10052000AD120208AD120208AD120208AD120208A7
:10053000AD120208AD120208AD120208AD12020897
:10054000AD120208AD120208AD120208AD12020887
:10055000AD120208AD120208AD120208AD12020877
:10056000AD120208AD120208AD120208AD12020867
:10057000AD120208AD120208AD1202080000000020
:10058000AD120208AD120208AD120208AD12020847
:10059000AD120208AD120208AD120208AD12020837
:0C05A000AD120208AD120208AD120208F4
:1005B00010B5054C237833B9044B13B10448AFF39D
:1005C00000800123237010BD700000200000000097
:1005D000F449020808B5034B1BB103490348AFF3C4
:1005E000008008BD0000000074000020F4490208EB
:1005F00001F0FF01102A2BDB10F0070F08D010F8D4
:10060000013B013A8B422DD010F0070F42B3F6D1D7
:10061000F0B441EA012141EA014122F007047FF0F0
:1006200000070023F0E80256083C85EA010586EA47
:10063000010685FA47F5A3FA87F586FA47F6A5FA83
:1006400087F68EB9EED1F0BC01F0FF0102F007028F
:1006500032B110F8013B013A83EA010313B1F8D13A
:100660000020704701387047002D06BF354603381B
:10067000073815F0010F07D1013015F4807F02BF54
:10068000013015F4C03F0130F0BC0138704700BFA5
:1006900053B94AB9002908BF00281CBF4FF0FF31E9
:1006A0004FF0FF3000F072B9ADF1080C6DE904CEE7
:1006B00000F006F8DDF804E0DDE9022304B070473D
:1006C0002DE9F047089E04468846002B4BD18A420C
:1006D000154667D9B2FA82F24AB1C2F1200701FA8F
:1006E00002F320FA07F7954047EA030894404FEADF
:1006F000154E230CB8FBFEF71FFA85FC0EFB17887E
:1007000043EA084307FB0CF1994209D9EB1807F1BA
:10071000FF3080F01B81994240F21881023F2B4448
:100720005B1AA4B2B3FBFEF00EFB103344EA0344A1
:1007300000FB0CFCA44509D92C1900F1FF3380F013
:100740000781A44540F2048102382C4440EA074066
:10075000A4EB0C0400271EB1D4400023C6E90043DB
:100760003946BDE8F0878B4209D9002E00F0EB80B6
:100770000027C6E9000138463946BDE8F087B3FADC
:1007800083F7002F47D18B4202D3824200F2FA80D6
:10079000841A61EB030301209846002EE0D0C6E9DD
:1007A0000048DDE702B9FFDEB2FA82F2002A40F02B
:1007B0008F80491B4FEA154E1FFA85F80127B1FBC0
:1007C000FEFC230C0EFB1C1143EA014308FB0CF159
:1007D000994207D9EB180CF1FF3002D2994200F28E
:1007E000CD808446591AA3B2B1FBFEF00EFB101463
:1007F00043EA044408FB00F8A04507D92C1900F18E
:10080000FF3302D2A04500F2B6801846A4EB0804DC
:1008100040EA0C409FE7C7F1200CBB4022FA0CFED7
:100820004EEA030E01FA07F420FA0CF521FA0CF354
:100830004FEA1E482543B3FBF8F92C0C08FB19338B
:100840001FFA8EFA44EA034309FB0AF49C4202FAB7
:1008500007F200FA07F10BD91EEB030309F1FF3091
:1008600080F087809C4240F28480A9F102097344A1
:100870001B1BADB2B3FBF8F008FB103345EA034491
:1008800000FB0AFAA24508D91EEB040400F1FF336D
:100890006BD2A24569D90238744440EA0940A0FBF2
:1008A0000289A4EB0A044C45C2464B4654D351D0AE
:1008B000002E69D0B1EB0A0564EB030404FA0CFCCA
:1008C000FD40FC404CEA0505C6E90054002747E717
:1008D000C2F1200320FA03F7954001FA02F021FA51
:1008E00003F34FEA154E3843010CB3FBFEF71FFA32
:1008F00085F80EFB173341EA034107FB08F38B42EF
:1009000004FA02F407D9691807F1FF3C2FD28B4291
:100910002DD9023F2944CB1A81B2B3FBFEF00EFB66
:10092000103341EA034100FB08F38B4207D96918F1
:1009300000F1FF3C17D28B4215D902382944C91A5D
:1009400040EA07473BE73746304609E70746E7E610
:100950001846FBE64145ABD2B8EB020A69EB0E0242
:1009600001381346A4E76046E9E7184695E767466D
:10097000D1E781467CE702382C4447E7ACF1020C12
:100980002B442FE7384608E73746E9E6704700BFB3
:1009900080B582B000AF7860391D0A230122044877
:1009A00002F0FDF97B6818460837BD4680BD00BFE0
:1009B0009800002080B500AF00F07AFC00F028F825
:1009C00000F028F900F08EF800F0CCF800F0F4F810
:1009D0000C4B5B8819460B4B9B681A460A4803F080
:1009E00025F900220121094801F0F4FBC82000F09C
:1009F000D1FC01220121054801F0ECFBC82000F0E8
:100A0000C9FCEEE7000002080C4A0208000402409C
:100A100080B594B000AF07F12003302200211846C2
:100A200003F0FCF807F10C0300221A605A609A6088
:100A3000DA601A610023BB60284B1B6C274A43F025
:100A400080531364254B1B6C03F08053BB60BB6861
:100A500000237B60224B1B68214A43F44043136010
:100A60001F4B1B6803F440437B607B6801233B62A0
:100A70004FF4A0237B620223BB634FF48003FB632C
:100A800004233B64A8237B640223BB640723FB6429
:100A900007F12003184601F0D3FC0346002B01D0D8
:100AA00000F066F90F23FB6002233B6100237B61AA
:100AB0004FF4A053BB614FF48053FB6107F10C036B
:100AC0000521184601F02CFF0346002B01D000F051
:100AD0004FF900BF5037BD4680BD00BF003802400F
:100AE0000070004080B500AF1C4B1D4A1A601B4BC4
:100AF00001225A60194B00221A82184B5B690022AE
:100B00001A70164B5B69013380221A70134B5B69B4
:100B10000233E1221A70114B5B69033300221A7011
:100B20000E4B5B69043300221A700C4B5B69053372
:100B300000221A70094B00229A61084B0022DA61E8
:100B4000064B4FF400021A62044800F02BFD0346E6
:100B5000002B01D000F00CF900BF80BDE0040020A4
:100B60000080024080B500AF114B124A1A60104B52
:100B70004FF4E1325A600E4B00229A600C4B002277
:100B8000DA600B4B00221A61094B0C225A61084BA8
:100B900000229A61064B0022DA61054802F0B2F8A1
:100BA0000346002B01D000F0E3F800BF80BD00BF7A
:100BB000980000200048004080B500AF144B4FF073
:100BC000A0421A60124B04225A60114B0222DA60D2
:100BD0000F4B00221A610E4B02229A610C4B01222C
:100BE000DA610B4B00221A62094B00225A62084B51
:100BF0000122DA62064B00221A63054801F003FB6A
:100C00000346002B01D000F0B3F800BF80BD00BF49
:100C1000D800002080B58CB000AF07F11C03002283
:100C20001A605A609A60DA601A610023BB614B4B0C
:100C30001B6B4A4A43F004031363484B1B6B03F0DE
:100C40000403BB61BB6900237B61444B1B6B434ABC
:100C500043F080031363414B1B6B03F080037B6104
:100C60007B6900233B613D4B1B6B3C4A43F0010316
:100C700013633A4B1B6B03F001033B613B69002399
:100C8000FB60364B1B6B354A43F002031363334B57
:100C90001B6B03F00203FB60FB680023BB602F4B60
:100CA0001B6B2E4A43F0080313632C4B1B6B03F0A2
:100CB0000803BB60BB6800237B60284B1B6B274A83
:100CC00043F040031363254B1B6B03F040037B6031
:100CD0007B68002244F28101214801F07BFA002266
:100CE0004021204801F076FA4FF40053FB611E4B7F
:100CF0003B6200237B6207F11C0319461B4801F08D
:100D0000BFF844F28103FB6101233B6200237B6255
:100D10000023BB6207F11C031946114801F0B0F82B
:100D20004023FB6101233B6200237B620023BB6203
:100D300007F11C0319460B4801F0A2F88023FB6160
:100D400000233B6200237B6207F11C031946054820
:100D500001F096F800BF3037BD4680BD0038024034
:100D60000004024000180240000011100008024078
:100D700080B400AF00BFBD465DF8047B7047000043
:100D800080B483B000AF00237B60104B5B6C0F4AD4
:100D900043F4804353640D4B5B6C03F480437B60EE
:100DA0007B6800233B60094B1B6C084A43F080536F
:100DB0001364064B1B6C03F080533B603B6800BF21
:100DC0000C37BD465DF8047B704700BF0038024019
:100DD00080B58EB000AF786007F1240300221A605E
:100DE0005A609A60DA601A617B681B68554A9342C0
:100DF00040F0A48000233B62534B1B6B524A43F0EC
:100E000000731363504B1B6B03F000733B623B6A30
:100E10000023FB614C4B1B6B4B4A43F08063136315
:100E2000494B1B6B03F08063FB61FB690023BB61D3
:100E3000454B1B6B444A43F000631363424B1B6BEF
:100E400003F00063BB61BB6900237B613E4B1B6BFE
:100E50003D4A43F0040313633B4B1B6B03F0040355
:100E60007B617B6900233B61374B1B6B364A43F048
:100E700001031363344B1B6B03F001033B613B69BC
:100E80000023FB60304B1B6B2F4A43F002031363BC
:100E90002D4B1B6B03F00203FB60FB680023BB6060
:100EA000294B1B6B284A43F040031363264B1B6BF3
:100EB00003F04003BB60BB6832237B620223BB624A
:100EC0000023FB6203233B630B237B6307F12403B3
:100ED00019461E4800F0D4FF86237B620223BB62C2
:100EE0000023FB6203233B630B237B6307F1240393
:100EF0001946174800F0C4FF4FF400537B620223E9
:100F0000BB620023FB6203233B630B237B6307F17C
:100F1000240319460F4800F0B3FF4FF420537B62BF
:100F20000223BB620023FB6203233B630B237B632F
:100F300007F124031946084800F0A2FF00BF383724
:100F4000BD4680BD008002400038024000080240DB
:100F500000000240000402400018024080B58AB040
:100F600000AF786007F1140300221A605A609A609B
:100F7000DA601A617B681B68194A93422CD10023FE
:100F80003B61184B1B6C174A43F480231364154BC9
:100F90001B6C03F480233B613B690023FB60114B16
:100FA0001B6B104A43F0080313630E4B1B6B03F0DB
:100FB0000803FB60FB684FF440737B610223BB6155
:100FC0000023FB6103233B6207237B6207F11403C9
:100FD0001946054800F054FF00BF2837BD4680BDC4
:100FE0000048004000380240000C024080B58AB042
:100FF00000AF786007F1140300221A605A609A600B
:10100000DA601A617B681B68B3F1A04F3FD10023FF
:101010003B61214B1B6B204A43F0010313631E4BC2
:101020001B6B03F001033B613B694FF4E8537B61A9
:101030000223BB610023FB6103233B620A237B6223
:1010400007F114031946154800F01AFF4FF4007316
:101050007B610023BB610023FB6107F11403194688
:101060000E4800F00DFF0C4B5B6B0B4A43F0800306
:1010700053630023FB60084B5B6C074A43F48043D7
:101080005364054B5B6C03F48043FB60FB6800BF5B
:101090002837BD4680BD00BF003802400000024036
:1010A00080B400AF00BFBD465DF8047B704780B4DC
:1010B00000AFFEE780B400AFFEE780B400AFFEE70C
:1010C00080B400AFFEE780B400AF00BFBD465DF85E
:1010D000047B704780B400AF00BFBD465DF8047B61
:1010E000704780B400AF00BFBD465DF8047B704719
:1010F00080B500AF00F02EF900BF80BD80B586B08E
:1011000000AFF860B9607A6000237B610AE0AFF35A
:1011100000800146BB685A1CBA60CAB21A707B696B
:1011200001337B617A697B689A42F0DB7B68184601
:101130001837BD4680BD80B586B000AFF860B96095
:101140007A6000237B6109E0BB685A1CBA601B7897
:101150001846FFF71DFC7B6901337B617A697B6868
:101160009A42F1DB7B6818461837BD4680BD80B4D3
:1011700083B000AF78604FF0FF3318460C37BD46A0
:101180005DF8047B704780B483B000AF786039604D
:101190003B684FF400525A60002318460C37BD4696
:1011A0005DF8047B704780B483B000AF78600123A2
:1011B00018460C37BD465DF8047B704780B485B097
:1011C00000AFF860B9607A60002318461437BD4656
:1011D0005DF8047B7047000080B584B000AF786094
:1011E000114B1B68002B02D10F4B104A1A600E4B9B
:1011F0001B68FB600C4B1A687B6813446A46934279
:1012000007D902F0E1FC02460C2313604FF0FF33D4
:1012100006E0054B1A687B681344034A1360FB68B9
:1012200018461037BD4680BD8C00002030050020D8
:1012300080B400AF074BD3F88830064A43F47003FC
:10124000C2F88830034B044A9A6000BFBD465DF87F
:10125000047B704700ED00E000040208DFF834D0A2
:10126000002103E00C4B5B58435004310B480C4BFE
:1012700042189A42F6D30B4A02E0002342F8043B9C
:10128000094B9A42F9D3FFF7D3FF02F0A3FCFFF713
:1012900091FB704700000320F44A02080000002080
:1012A000700000207000002030050020FEE70000E4
:1012B00080B500AF0E4B1B680D4A43F400731360FA
:1012C0000B4B1B680A4A43F480631360084B1B688E
:1012D000074A43F480731360032000F02FF90020C5
:1012E00000F008F8FFF74CFD0023184680BD00BF52
:1012F000003C024080B582B000AF7860124B1A68A3
:10130000124B1B7819464FF47A73B3FBF1F3B2FB1F
:10131000F3F3184600F039F90346002B01D00123FE
:101320000EE07B680F2B0AD8002279684FF0FF305F
:1013300000F00FF9064A7B681360002300E00123E8
:1013400018460837BD4680BD000000200800002078
:101350000400002080B400AF064B1B781A46064BF1
:101360001B681344044A136000BFBD465DF8047B4C
:10137000704700BF080000202805002080B400AF9F
:10138000034B1B681846BD465DF8047B704700BFE1
:101390002805002080B584B000AF7860FFF7EEFF2D
:1013A000B8607B68FB60FB68B3F1FF3F05D0094B79
:1013B0001B781A46FB681344FB6000BFFFF7DEFF93
:1013C0000246BB68D31AFA689A42F7D800BF1037B2
:1013D000BD4680BD0800002080B485B000AF7860B5
:1013E0007B6803F00703FB600C4BDB68BB60BA68EB
:1013F0004FF6FF031340BB60FB681A02BB68134340
:1014000043F0BF6343F40033BB60044ABB68D3605E
:1014100000BF1437BD465DF8047B704700ED00E067
:1014200080B400AF044BDB681B0A03F007031846C7
:10143000BD465DF8047B704700ED00E080B483B0EA
:1014400000AF03463960FB7197F90730002B0ADBC8
:101450003B68DAB20C4997F907301201D2B20B445B
:1014600083F800230AE03B68DAB20849FB7903F00D
:101470000F03043B1201D2B20B441A7600BF0C37A3
:10148000BD465DF8047B704700E100E000ED00E040
:1014900080B489B000AFF860B9607A60FB6803F08F
:1014A0000703FB61FB69C3F10703042B28BF042377
:1014B000BB61FB690433062B02D9FB69033B00E0E7
:1014C00000237B614FF0FF32BB6902FA03F3DA437A
:1014D000BB681A407B699A404FF0FF317B6901FA83
:1014E00003F3D9437B680B40134318462437BD46AA
:1014F0005DF8047B7047000080B582B000AF786073
:101500007B68013BB3F1807F01D301230FE00A4ADE
:101510007B68013B53600F214FF0FF30FFF78EFFD8
:10152000054B00229A60044B07221A6000231846DC
:101530000837BD4680BD00BF10E000E080B582B036
:1015400000AF78607868FFF747FF00BF0837BD46F7
:1015500080BD80B586B000AF0346B9607A60FB738A
:1015600000237B61FFF75CFF78617A68B96878696E
:10157000FFF78EFF024697F90F3011461846FFF726
:101580005DFF00BF1837BD4680BD80B582B000AF9B
:1015900078607868FFF7B0FF034618460837BD4605
:1015A00080BD000080B588B000AF78600023FB618B
:1015B0000023FB60AA4BBB6100237B6100233B61DE
:1015C0007B68002B01D1012385E17B6893F84430CF
:1015D000DBB2002B06D17B68002283F845207868B7
:1015E000FFF7F6FB0023BB609E4B5B6C9D4A43F408
:1015F000804353649B4B5B6C03F48043BB60BB68CC
:10160000994B5B68984A23F400035360964B5A68E1
:101610007B681B6A944913434B607B681B6803F526
:1016200080531A687B681B6842F0010203F58053FF
:101630001A60FFF7A3FE786111E0FFF79FFE0246F4
:101640007B69D31AB3F5FA7F09D97B68032283F843
:1016500044207B68002283F8452003233BE17B681C
:101660001B6803F580531B6803F00103002BE4D1D2
:101670007B681B681B69FB61FB6923F01C03FB6132
:1016800001F00CFBB861BB69784A934208D9BB6989
:10169000774A934204D8FB6943F00803FB6127E0D3
:1016A000BB69734A934208D9BB69724A934204D812
:1016B000FB6943F00C03FB611AE0BB696D4A93427E
:1016C00003D9BB696C4A934211D9BB696A4A9342F8
:1016D00008D9BB69694A934204D8FB6943F0040303
:1016E000FB6105E0FB6943F01003FB6100E000BF14
:1016F0007B681B68FA691A614FF400420021786820
:1017000000F056F90346002B0BD001233B613969E9
:10171000786800F0B3F97B68012283F84420012344
:10172000D9E0FF20FFF736FE7B685B68002B00F0F6
:10173000A780FFF723FE786107F10C031A46012109
:10174000786800F0CDF8FFF719FE02467B69D31ADE
:1017500041F2883293420FD901233B61396978689D
:1017600000F08CF97B68012283F844207B6800221A
:1017700083F845200323AEE0FB6803F00403002B4D
:10178000DAD04FF480520021786800F011F9034656
:10179000002B0BD001233B613969786800F06EF9AA
:1017A0007B68012283F84420012394E0FFF7E6FDE3
:1017B000786107F10C031A460121786800F090F86F
:1017C000FFF7DCFD02467B69D31A41F2883293426F
:1017D0000FD901233B613969786800F04FF97B68C4
:1017E000012283F844207B68002283F845200323EC
:1017F00071E0FB6803F02003002BDAD007F10C0343
:101800001A461F21786800F06BF80346002B0BD0B6
:1018100001233B613969786800F030F97B68012267
:1018200083F84420012356E0FB6803F01003002BEB
:1018300004D07B684FF40062DA6002E07B6800222B
:10184000DA60FB6803F00403002B03D07B680022FE
:101850009A6037E07B684FF480429A6032E000BFC4
:10186000008793030038024000380140FF2C31010B
:10187000BF0E1602FF869303FFE0F5057FD1F00847
:101880007B68DB68DB089AB27B689B685B089BB26D
:1018900013439BB21A460021786800F089F803468A
:1018A000002B0BD001233B613969786800F0E6F822
:1018B0007B68012283F8442001230CE040F6FF708E
:1018C000FFF768FD3969786800F0D8F87B68012275
:1018D00083F84420002318462037BD4680BD00BF52
:1018E00080B586B000AFF8600B467A607B8100233C
:1018F0007B6100233B61FB6893F84430DBB2822BB1
:1019000001D1022350E0FB68822283F84420FB6867
:101910001B681B697B617B6903F01C037B61FB68AF
:101920001B8ADB029BB27A6913437B617B899B0133
:1019300003F4F8637A6913437B617B6923F0020344
:101940007B617B6943F001037B61FB681B687A69FB
:101950001A61FFF713FD386115E0FFF70FFD02462E
:101960003B69D31AB3F5803F09D3FB68012283F8A2
:101970004420FB68002283F84520032314E0FB6821
:101980001B681B697B617B6903F00103002BE4D1B9
:10199000FB681B685B699BB21A467B681A60FB6830
:1019A000012283F84420002318461837BD4680BD25
:1019B00080B586B000AFF8600B467A607B8100236B
:1019C0007B6100233B61FB6893F84430DBB2422B20
:1019D00001D102234EE0FB68422283F84420FB68D9
:1019E0001B681B697B617B6903F01C037B61FB68DF
:1019F0001B8ADB029BB27A6913437B617B899B0163
:101A000003F4F8637A6913437B617B6943F0020353
:101A10007B617B6943F001037B617B689AB2FB6861
:101A20001B685A61FB681B687A691A61FFF7A6FC9C
:101A3000386115E0FFF7A2FC02463B69D31AB3F503
:101A4000803F09D3FB68012283F84420FB68002211
:101A500083F8452003230DE0FB681B681B697B614D
:101A60007B6903F00103002BE4D1FB68012283F8BA
:101A70004420002318461837BD4680BD80B5B0B05D
:101A800000AF786039600023C7F8BC303B68002B9A
:101A900007D07B684FF40062DA607B684FF48042C5
:101AA0009A600023BB640023FB6400233B65002392
:101AB0007B650023BB650023FB657B68DB69002B2E
:101AC00003D14FF480633B6601E000233B664FF493
:101AD00000737B660023BB660023FB6600233B6725
:101AE00000237B670023BB674023FB670023C7F805
:101AF00080300023C7F884300023C7F888300023E3
:101B0000C7F88C300023C7F890300023C7F8943012
:101B10000023C7F898300023C7F89C308023C7F80B
:101B2000A0300023C7F8A4300023C7F8A830002352
:101B3000C7F8AC300023C7F8B0300023C7F8B43082
:101B40000023C7F8B8307B681B681B68C7F8BC3037
:101B5000D7F8BC20AC4B1340C7F8BC30BA6CFB6C58
:101B60001A433B6D1A437B6D1A437B689B681A438B
:101B7000BB6D1A43FB6D1A437B68DB681A433B6EEF
:101B80001A437B6E1A43BB6E1A43FB6E1A433B6FBC
:101B90001343D7F8BC201343C7F8BC307B681B68DD
:101BA000D7F8BC201A607B681B681B68C7F8BC307C
:101BB0000120FFF7EFFB7B681B68D7F8BC201A6099
:101BC0007A6FBB6F1A43FB6F1A43D7F880301A4302
:101BD000D7F884301A43D7F888301A43D7F88C30B6
:101BE00042EA0301D7F890207B681B680A435A60D9
:101BF0007B681B685B68C7F8BC300120FFF7CAFB35
:101C00007B681B68D7F8BC205A607B681B68D7F8D4
:101C100094209A607B681B68D7F89820DA607B680C
:101C20001B689B69C7F8BC30D7F8BC204FF64173DE
:101C30001340C7F8BC30D7F89C301A04D7F8A0304E
:101C40001A43D7F8A4301A43D7F8A8301A43D7F864
:101C5000AC301A43D7F8B0301343D7F8BC20134345
:101C6000C7F8BC307B681B68D7F8BC209A617B68DA
:101C70001B689B69C7F8BC300120FFF78BFB7B68B2
:101C80001B68D7F8BC209A61D7F8B410D7F8B820F1
:101C90007B681B680A43DA617B681B68DB69C7F8ED
:101CA000BC300120FFF776FB7B681B68D7F8BC20AF
:101CB000DA610023BB604FF00073FB6000233B61DF
:101CC0004FF400137B610023BB610023FB61002301
:101CD0003B6200237B620423BB624FF00073FB6214
:101CE0004FF480333B634FF480037B634FF4005326
:101CF000BB638023FB6300233B6400237B647B681E
:101D00001B6803F5805318331B68C7F8BC30D7F83D
:101D1000BC203E4B1340C7F8BC30BA68FB681A437E
:101D20003B691A437B691A43BB691A43FB691A432F
:101D30003B6A1A437B6A1A43BB6A1343D7F8BC2039
:101D40001343C7F8BC307B681B6803F58053183316
:101D5000D7F8BC201A607B681B6803F580531833E2
:101D60001B68C7F8BC300120FFF714FB7B681B68B9
:101D700003F580531833D7F8BC201A60FA6A3B6B1E
:101D80001A437B6B1A43BB6B1A43FB6B1A433B6CC6
:101D90009B001A437B6C1A437B681B6842F4000269
:101DA00003F580531A607B681B6803F580531B683A
:101DB000C7F8BC300120FFF7EDFA7B681B6803F51C
:101DC0008053D7F8BC201A607B689B69012B0FD128
:101DD0007B681B6803F580531C331A687B681B689B
:101DE00042F4803242F0400203F580531C331A6003
:101DF0007B685B691A460021786800F009F800BF2B
:101E0000C037BD4680BD00BF0F8120FF233FDEF8F5
:101E100080B487B000AFF860B9607A607B68053342
:101E20001B781B027A680432127813437B61BA680C
:101E3000114B13441A467B6913607B6803331B788C
:101E40001A067B6802331B781B041A437B68013334
:101E50001B781B0213437A68127813437B61BA68BC
:101E6000064B13441A467B69136000BF1C37BD46FE
:101E70005DF8047B704700BF408002404480024010
:101E800080B489B000AF7860396000237B610023A3
:101E90003B610023BB610023FB6177E10122FB6909
:101EA00002FA03F37B613B681B687A6913403B616C
:101EB0003A697B699A4240F066813B685B68012B16
:101EC0000BD03B685B68022B07D03B685B68112B2B
:101ED00003D03B685B68122B30D17B689B68BB6189
:101EE000FB695B00032202FA03F3DB43BA69134088
:101EF000BB613B68DA68FB695B0002FA03F3BA690D
:101F00001343BB617B68BA699A607B685B68BB619D
:101F10000122FB6902FA03F3DB43BA691340BB6198
:101F20003B685B681B0903F00102FB6902FA03F3DB
:101F3000BA691343BB617B68BA695A607B68DB6826
:101F4000BB61FB695B00032202FA03F3DB43BA695E
:101F50001340BB613B689A68FB695B0002FA03F3BC
:101F6000BA691343BB617B68BA69DA603B685B6836
:101F7000022B03D03B685B68122B23D1FB69DA0884
:101F80007B68083253F82230BB61FB6903F007031A
:101F90009B000F2202FA03F3DB43BA691340BB61D3
:101FA0003B681A69FB6903F007039B0002FA03F31D
:101FB000BA691343BB61FB69DA087B680832B96907
:101FC00043F822107B681B68BB61FB695B0003223E
:101FD00002FA03F3DB43BA691340BB613B685B68F9
:101FE00003F00302FB695B0002FA03F3BA691343CF
:101FF000BB617B68BA691A603B685B6803F0805319
:10200000002B00F0C0800023FB60654B5B6C644AD2
:1020100043F480435364624B5B6C03F48043FB6086
:10202000FB68604AFB699B08023352F82330BB61AE
:10203000FB6903F003039B000F2202FA03F3DB4367
:10204000BA691340BB617B68574A934237D07B68BB
:10205000564A934231D07B68554A93422BD07B68D5
:10206000544A934225D07B68534A93421FD07B68E1
:10207000524A934219D07B68514A934213D07B68ED
:10208000504A93420DD07B684F4A934207D07B68F9
:102090004E4A934201D1092312E00A2310E008239B
:1020A0000EE007230CE006230AE0052308E00423E2
:1020B00006E0032304E0022302E0012300E0002302
:1020C000FA6902F0030292009340BA691343BB61BC
:1020D0003449FB699B080233BA6941F823203C4B21
:1020E0001B68BB613B69DB43BA691340BB613B685A
:1020F0005B6803F48033002B03D0BA693B69134358
:10210000BB61334ABB691360314B5B68BB613B69A0
:10211000DB43BA691340BB613B685B6803F400337F
:10212000002B03D0BA693B691343BB61284ABB69E2
:102130005360274B9B68BB613B69DB43BA69134023
:10214000BB613B685B6803F48013002B03D0BA6962
:102150003B691343BB611E4ABB6993601C4BDB6840
:10216000BB613B69DB43BA691340BB613B685B6899
:1021700003F40013002B03D0BA693B691343BB611E
:10218000134ABB69D360FB690133FB61FB690F2B09
:102190007FF684AE00BF2437BD465DF8047B7047F0
:1021A00000380240003801400000024000040240B4
:1021B00000080240000C02400010024000140240DF
:1021C00000180240001C024000200240002402408F
:1021D000003C014080B483B000AF78600B467B8048
:1021E00013467B707B78002B03D07A887B689A61DA
:1021F00003E07B881A047B689A6100BF0C37BD46F8
:102200005DF8047B7047F0B58FB00AAF78607B68EB
:10221000002B01D101230FE17B681B68BB607B6849
:1022200093F8BD33DBB2002B06D17B68002283F824
:10223000BC237868FEF7DAFE7B68032283F8BD23AF
:10224000BB68DB6B03F48073002B02D17B68002238
:102250001A617B681B68184601F061FA7B681B688D
:102260003B607E686D4606F110040FCC0FC50FCCA5
:102270000FC594E8030085E80300331D0ECB3868D2
:1022800001F0ECF90346002B05D07B68022283F8AD
:10229000BD230123D0E07B681B680021184601F0B4
:1022A0004FFA0023FB734AE0FA7B79681346DB00A0
:1022B0009B1A9B000B443D3301221A70FA7B79680C
:1022C0001346DB009B1A9B000B443C33FA7B1A70CD
:1022D000FA7BFB7B98B279681346DB009B1A9B0064
:1022E0000B44423302461A80FA7B79681346DB00BE
:1022F0009B1A9B000B443F3300221A70FA7B7968CB
:102300001346DB009B1A9B000B44443300221A60E7
:10231000FA7B79681346DB009B1A9B000B44483319
:1023200000221A60FA7B79681346DB009B1A9B0037
:102330000B44503300221A60FB7B0133FB73FA7BA2
:102340007B685B689A42AFD30023FB7344E0FA7B5F
:1023500079681346DB009B1A9B000B4403F2FD13C4
:1023600000221A70FA7B79681346DB009B1A9B00E7
:102370000B4403F5FE73FA7B1A70FA7B79681346F7
:10238000DB009B1A9B000B4403F2FF1300221A7020
:10239000FA7B79681346DB009B1A9B000B4403F51C
:1023A000017300221A60FA7B79681346DB009B1ADE
:1023B0009B000B4403F5027300221A60FA7B7968D4
:1023C0001346DB009B1A9B000B4403F504730022A9
:1023D0001A60FB7B0133FB73FA7B7B685B689A4274
:1023E000B5D37B681B683B607E686D4606F11004C0
:1023F0000FCC0FC50FCC0FC594E8030085E8030090
:10240000331D0ECB386801F0C5F90346002B05D00B
:102410007B68022283F8BD2301230DE07B68002244
:1024200083F838207B68012283F8BD237B681B6812
:10243000184601F074FB002318461437BD46F0BD62
:1024400080B586B000AF78607B68002B01D1012396
:102450005BE27B681B6803F00103002B75D0A34B84
:102460009B6803F00C03042B0CD0A04B9B6803F07B
:102470000C03082B12D19D4B5B6803F48003B3F56A
:10248000800F0BD1994B1B6803F40033002B5BD0FA
:102490007B685B68002B57D1012336E27B685B6861
:1024A000B3F5803F06D1914B1B68904A43F48033CB
:1024B00013601DE07B685B68B3F5A02F0CD18B4BDC
:1024C0001B688A4A43F480231360884B1B68874A41
:1024D00043F4803313600BE0844B1B68834A23F47E
:1024E00080331360814B1B68804A23F48023136080
:1024F0007B685B68002B13D0FEF740FF386108E073
:10250000FEF73CFF02463B69D31A642B01D9032333
:10251000FBE1764B1B6803F40033002BF0D014E092
:10252000FEF72CFF386108E0FEF728FF02463B6902
:10253000D31A642B01D90323E7E16C4B1B6803F426
:102540000033002BF0D100E000BF7B681B6803F074
:102550000203002B63D0654B9B6803F00C03002B38
:102560000BD0624B9B6803F00C03082B1CD15F4B14
:102570005B6803F48003002B16D15C4B1B6803F0EF
:102580000203002B05D07B68DB68012B01D00123FF
:10259000BBE1564B1B6823F0F8027B681B69DB002C
:1025A000524913430B603AE07B68DB68002B20D074
:1025B0004F4B01221A60FEF7E1FE386108E0FEF79A
:1025C000DDFE02463B69D31A022B01D903239CE1AD
:1025D000464B1B6803F00203002BF0D0434B1B68F3
:1025E00023F0F8027B681B69DB00404913430B6052
:1025F00015E03F4B00221A60FEF7C0FE386108E08C
:10260000FEF7BCFE02463B69D31A022B01D9032315
:102610007BE1364B1B6803F00203002BF0D17B6893
:102620001B6803F00803002B30D07B685B69002B2C
:1026300016D0304B01221A60FEF7A0FE386108E088
:10264000FEF79CFE02463B69D31A022B01D90323F5
:102650005BE1264B5B6F03F00203002BF0D015E02B
:10266000244B00221A60FEF789FE386108E0FEF76D
:1026700085FE02463B69D31A022B01D9032344E1AC
:102680001A4B5B6F03F00203002BF0D17B681B68D1
:1026900003F00403002B00F0A0800023FB75134B14
:1026A0001B6C03F08053002B0FD10023BB600F4B3A
:1026B0001B6C0E4A43F0805313640C4B1B6C03F0ED
:1026C0008053BB60BB680123FB750B4B1B6803F495
:1026D0008073002B21D1084B1B68074A43F4807399
:1026E0001360FEF74BFE386111E000BF0038024076
:1026F00000004742800E474200700040FEF73EFE59
:1027000002463B69D31A022B01D90323FDE0814B1A
:102710001B6803F48073002BF0D07B689B68012B4F
:1027200006D17D4B1B6F7C4A43F0010313671CE00D
:102730007B689B68052B0CD1774B1B6F764A43F067
:1027400004031367744B1B6F734A43F00103136751
:102750000BE0714B1B6F704A23F0010313676E4B44
:102760001B6F6D4A23F0040313677B689B68002B83
:1027700015D0FEF703FE38610AE0FEF7FFFD0246C2
:102780003B69D31A41F28832934201D90323BCE05A
:10279000614B1B6F03F00203002BEED014E0FEF739
:1027A000EDFD38610AE0FEF7E9FD02463B69D31A08
:1027B00041F28832934201D90323A6E0564B1B6FA6
:1027C00003F00203002BEED1FB7D012B05D1524B10
:1027D0001B6C514A23F0805313647B689B69002B68
:1027E00000F092804C4B9B6803F00C03082B5CD0EC
:1027F0007B689B69022B41D1484B00221A60FEF78F
:10280000BDFD386108E0FEF7B9FD02463B69D31A09
:10281000022B01D9032378E03F4B1B6803F00073C0
:10282000002BF0D17B68DA697B681B6A1A437B68EE
:102830005B6A9B011A437B689B6A5B08013B1B0434
:102840001A437B68DB6A1B06334913434B60334BE7
:1028500001221A60FEF792FD386108E0FEF78EFD56
:1028600002463B69D31A022B01D903234DE02A4BC0
:102870001B6803F00073002BF0D045E0274B0022CB
:102880001A60FEF77BFD386108E0FEF777FD02462F
:102890003B69D31A022B01D9032336E01E4B1B6878
:1028A00003F00073002BF0D12EE07B689B69012BB5
:1028B00001D1012329E0184B5B68FB60FB6803F43E
:1028C00080027B68DB699A421CD1FB6803F03F02FF
:1028D0007B681B6A9A4215D1FA6847F6C0731340A9
:1028E0007A68526A93420DD1FB6803F440327B68E8
:1028F0009B6A9A4206D1FB6803F070627B68DB6AD0
:102900009A4201D0012300E0002318461837BD4643
:1029100080BD00BF007000400038024060004742A8
:1029200080B584B000AF786039607B68002B01D13E
:102930000123CCE0684B1B6803F00F033A689A420E
:102940000CD9654B3A68D2B21A70634B1B6803F01E
:102950000F033A689A4201D00123B8E07B681B68F4
:1029600003F00203002B20D07B681B6803F00403F4
:10297000002B05D0594B9B68584A43F4E0539360B1
:102980007B681B6803F00803002B05D0534B9B6842
:10299000524A43F460439360504B9B6823F0F0022B
:1029A0007B689B684D4913438B607B681B6803F011
:1029B0000103002B44D07B685B68012B07D1474B98
:1029C0001B6803F40033002B19D101237FE07B68DF
:1029D0005B68022B03D07B685B68032B07D13F4BFE
:1029E0001B6803F00073002B09D101236FE03B4B00
:1029F0001B6803F00203002B01D1012367E0374B72
:102A00009B6823F003027B685B68344913438B6047
:102A1000FEF7B4FCF8600AE0FEF7B0FC0246FB6883
:102A2000D31A41F28832934201D903234FE02B4B52
:102A30009B6803F00C027B685B689B009A42EBD1B9
:102A4000254B1B6803F00F033A689A420CD2224BC5
:102A50003A68D2B21A70204B1B6803F00F033A6831
:102A60009A4201D0012332E07B681B6803F0040323
:102A7000002B08D0194B9B6823F4E0527B68DB687D
:102A8000164913438B607B681B6803F00803002B17
:102A900009D0124B9B6823F460427B681B69DB0002
:102AA0000E4913438B6000F021F801460B4B9B68E5
:102AB0001B0903F00F030A4AD35C21FA03F3094A06
:102AC0001360094B1B681846FEF714FC00231846D8
:102AD0001037BD4680BD00BF003C024000380240B8
:102AE000344A02080000002004000020F0B585B040
:102AF00000AF00237B600023FB6000233B600023CA
:102B0000BB60634B9B6803F00C03042B07D0082BBE
:102B100008D0002B40F0B4805E4BBB60B3E05E4B4E
:102B2000BB60B0E05A4B5B6803F03F037B60584BDF
:102B30005B6803F48003002B4AD0554B5B689B090C
:102B40004FF0000440F2FF114FF0000203EA0105CC
:102B500004EA0206294632464FF000034FF0000413
:102B6000540144EAD1644B0119462246491B62EBE9
:102B700006024FF000034FF00004940144EA916410
:102B80008B015B1A64EB02044FF000014FF000026E
:102B9000E20042EA5372D9000B4614465B1944EB3B
:102BA00006044FF000014FF00002620242EAD352E5
:102BB00059020B461446184621467B684FF0000424
:102BC0001A462346FDF764FD03460C46FB6049E0C8
:102BD0002F4B5B689B094FF0000440F2FF114FF050
:102BE000000203EA010504EA0206294632464FF0D4
:102BF00000034FF00004540144EAD1644B0119462C
:102C00002246491B62EB06024FF000034FF000041E
:102C1000940144EA91648B015B1A64EB02044FF067
:102C200000014FF00002E20042EA5372D9000B4665
:102C300014465B1944EB06044FF000014FF000020C
:102C4000A20242EA935299020B46144618462146C4
:102C50007B684FF000041A462346FDF719FD034632
:102C60000C46FB600A4B5B681B0C03F0030301334B
:102C70005B003B60FA683B68B2FBF3F3BB6002E0C9
:102C8000044BBB6000BFBB6818461437BD46F0BD9F
:102C9000003802400024F40000127A0080B400AF33
:102CA000034B1B681846BD465DF8047B704700BFA8
:102CB0000000002080B500AFFFF7F0FF0146054B94
:102CC0009B689B0A03F00703034AD35C21FA03F3D2
:102CD000184680BD00380240444A020880B500AF63
:102CE000FFF7DCFF0146054B9B685B0B03F0070316
:102CF000034AD35C21FA03F3184680BD0038024032
:102D0000444A020880B582B000AF78607B68002B2F
:102D100001D101233FE07B6893F83930DBB2002B0F
:102D200006D17B68002283F838207868FEF716F910
:102D30007B68242283F839207B681B68DA687B680B
:102D40001B6822F40052DA60786800F00BF97B68A7
:102D50001B681A697B681B6822F490421A617B68C1
:102D60001B685A697B681B6822F02A025A617B68DB
:102D70001B68DA687B681B6842F40052DA607B6883
:102D80000022DA637B68202283F839207B682022C6
:102D900083F83A20002318460837BD4680BD80B529
:102DA00088B002AFF860B9603B601346FB80002337
:102DB0007B61FB6893F83930DBB2202B40F08380D5
:102DC000BB68002B02D0FB88002B01D101237BE0E4
:102DD000FB6893F83830012B01D1022374E0FB68C3
:102DE000012283F83820FB680022DA63FB68212285
:102DF00083F83920FEF7C2FA7861FB68FA889A8472
:102E0000FB68FA88DA84FB68002283F8382042E005
:102E1000FB68DB8C9BB2013B9AB2FB68DA84FB68EF
:102E20009B68B3F5805F22D13B6800937B690022E9
:102E30008021F86800F04CF80346002B01D00323F2
:102E400042E0BB683B613B691B881A46FB681B6814
:102E5000C2F308025A60FB681B69002B03D1BB68F0
:102E60000233BB6017E0BB680133BB6013E03B6813
:102E700000937B6900228021F86800F029F803465E
:102E8000002B01D003231FE0BB685A1CBA601A78DC
:102E9000FB681B685A60FB68DB8C9BB2002BB7D1C8
:102EA0003B6800937B6900224021F86800F010F82D
:102EB0000346002B01D0032306E0FB68202283F8A1
:102EC0003920002300E0022318461837BD4680BD94
:102ED00080B584B000AFF860B9603B601346FB7109
:102EE0002CE0BB69B3F1FF3F28D0BB69002B07D0B2
:102EF000FEF744FA02463B68D31ABA699A421DD2D9
:102F0000FB681B68DA68FB681B6822F4D072DA6021
:102F1000FB681B685A69FB681B6822F001025A6152
:102F2000FB68202283F83920FB68202283F83A20AE
:102F3000FB68002283F8382003230FE0FB681B683E
:102F40001A68BB681340BA689A420CBF0123002379
:102F5000DBB21A46FB799A42C3D0002318461037D9
:102F6000BD4680BD2DE9F04F85B000AF78607B682D
:102F70001B681B6923F440517B68DA687B681B6817
:102F80000A431A617B689A687B681B691A437B68ED
:102F90005B691A437B68DB691343FB607B681B68D2
:102FA000DB6823F4164323F00C037A681268F9688F
:102FB0000B43D3607B681B685B6923F440717B68BB
:102FC0009A697B681B680A435A617B68DB69B3F5C1
:102FD000004F40F08B817B681B68C14A934205D04B
:102FE0007B681B68BF4A934240F0BD80FFF776FEC6
:102FF000B860BB681D464FF00006A846B14618EB06
:10300000080349EB09049846A14618EB050849EB6B
:1030100006094FF000014FF000024FEAC90242EAF0
:1030200058724FEAC8018846914618EB050049EBF3
:1030300006017B685B681D464FF000066B1946EB86
:1030400006041A462346FDF723FB03460C461A46A0
:10305000A54BA3FB02235B094FEA0318BB681D467F
:103060004FF00006A946B24619EB09034AEB0A04E1
:103070009946A24619EB05094AEB060A4FF00001F2
:103080004FF000024FEACA0242EA59724FEAC90100
:103090008946924619EB05004AEB06017B685B689E
:1030A0001D464FF000066B1946EB06041A462346F0
:1030B000FDF7EEFA03460C461A468B4BA3FB0213B0
:1030C0005B09642101FB03F3D31ADB003233864A28
:1030D000A2FB03235B095B0003F4F8739844BB680D
:1030E0001D464FF00006A946B24619EB09034AEB0C
:1030F0000A049946A24619EB05094AEB060A4FF065
:1031000000014FF000024FEACA0242EA59724FEA48
:10311000C9018946924619EB05004AEB06017B6816
:103120005B681D464FF000066B1946EB06041A4615
:103130002346FDF7ADFA03460C461A466A4BA3FB3D
:1031400002135B09642101FB03F3D31ADB00323362
:10315000654AA2FB03235B0903F007027B681B6837
:1031600042449A606FE2FFF7A5FDB860BB681D4658
:103170004FF00006A846B14618EB080349EB0904D6
:103180009846A14618EB050849EB06094FF00001E7
:103190004FF000024FEAC90242EA58724FEAC801F2
:1031A0008846914618EB050049EB06017B685B6891
:1031B0001D464FF000066B1946EB06041A462346DF
:1031C000FDF766FA03460C461A46474BA3FB02235B
:1031D0005B094FEA0318BB681D464FF00006A9467D
:1031E000B24619EB09034AEB0A049946A24619EBC9
:1031F00005094AEB060A4FF000014FF000024FEAC2
:10320000CA0242EA59724FEAC9018946924619EB4D
:1032100005004AEB06017B685B681D464FF000061F
:103220006B1946EB06041A462346FDF731FA0346AE
:103230000C461A462C4BA3FB02135B09642101FBCD
:1032400003F3D31ADB003233274AA2FB03235B09C3
:103250005B0003F4F8739844BB681D464FF000060A
:10326000A946B24619EB09034AEB0A049946A2465D
:1032700019EB05094AEB060A4FF000014FF0000276
:103280004FEACA0242EA59724FEAC9018946924698
:1032900019EB05004AEB06017B685B681D464FF0A1
:1032A00000066B1946EB06041A462346FDF7F0F9B3
:1032B00003460C461A460C4BA3FB02135B09642120
:1032C00001FB03F3D31ADB003233074AA2FB0323CB
:1032D0005B0903F007027B681B6842449A60B2E115
:1032E00000100140001401401F85EB517B681B68F2
:1032F000D74A934205D07B681B68D64A934240F078
:10330000D180FFF7EBFCB860BB689A464FF0000B2A
:10331000D046D94618EB080349EB09049846A14664
:1033200018EB0A0849EB0B094FF000014FF00002BF
:103330004FEAC90242EA58724FEAC80188469146EC
:103340001AEB08054BEB09067B685B6819464FF0E2
:1033500000024FF000034FF00004940044EA91741F
:103360008B001A46234628463146FDF791F903465D
:103370000C461A46B84BA3FB02235B094FEA03181D
:10338000BB689B464FF0000CD946E24619EB090397
:103390004AEB0A049946A24619EB0B094AEB0C0AC0
:1033A0004FF000014FF000024FEACA0242EA5972A0
:1033B0004FEAC901894692461BEB09054CEB0A0608
:1033C0007B685B6819464FF000024FF000034FF036
:1033D0000004940044EA91748B001A462346284660
:1033E0003146FDF755F903460C461A469A4BA3FBA6
:1033F00002135B09642101FB03F3D31A1B0132336F
:10340000954AA2FB03235B0903F0F0039844BB68D1
:103410009B464FF0000CD946E24619EB09034AEBF4
:103420000A049946A24619EB0B094AEB0C0A4FF025
:1034300000014FF000024FEACA0242EA59724FEA15
:10344000C901894692461BEB09054CEB0A067B68CD
:103450005B6819464FF000024FF000034FF0000484
:10346000940044EA91748B001A462346284631465C
:10347000FDF70EF903460C461A46774BA3FB0213E1
:103480005B09642101FB03F3D31A1B013233724A37
:10349000A2FB03235B0903F00F027B681B68424415
:1034A0009A60D0E0FFF706FCB860BB689A464FF020
:1034B000000BD046D94618EB080349EB090498469F
:1034C000A14618EB0A0849EB0B094FF000014FF039
:1034D00000024FEAC90242EA58724FEAC801884620
:1034E00091461AEB08054BEB09067B685B681946A9
:1034F0004FF000024FF000034FF00004940044EA44
:1035000091748B001A46234628463146FDF7C0F8D1
:1035100003460C461A46504BA3FB02235B094FEAB5
:103520000318BB689B464FF0000CD946E24619EBE6
:1035300009034AEB0A049946A24619EB0B094AEB28
:103540000C0A4FF000014FF000024FEACA0242EAB3
:1035500059724FEAC901894692461BEB09054CEBAB
:103560000A067B685B6819464FF000024FF00003C3
:103570004FF00004940044EA91748B001A462346ED
:1035800028463146FDF784F803460C461A46324B6E
:10359000A3FB02135B09642101FB03F3D31A1B0194
:1035A00032332D4AA2FB03235B0903F0F003984456
:1035B000BB689B464FF0000CD946E24619EB090365
:1035C0004AEB0A049946A24619EB0B094AEB0C0A8E
:1035D0004FF000014FF000024FEACA0242EA59726E
:1035E0004FEAC901894692461BEB09054CEB0A06D6
:1035F0007B685B6819464FF000024FF000034FF004
:103600000004940044EA91748B001A46234628462D
:103610003146FDF73DF803460C461A460E4BA3FB18
:1036200002135B09642101FB03F3D31A1B0132333C
:10363000094AA2FB03235B0903F00F027B681B68A6
:1036400042449A60FFE700BF1437BD46BDE8F08FE3
:1036500000100140001401401F85EB5184B080B57B
:1036600084B000AF786007F11C0080E80E003B6B6F
:10367000012B22D17B689B6B23F480327B689A6399
:103680007B68DB6823F4840323F040037A68D3600B
:103690007B68DB6823F440127B68DA60FB6C012BEB
:1036A00005D17B68DB6843F480127B68DA60786858
:1036B00000F056FA0346FB731AE07B68DB6843F0C0
:1036C00040027B68DA60786800F04AFA0346FB73D0
:1036D0003B6C002B06D17B689B6B43F480327B688C
:1036E0009A6305E07B689B6B23F480327B689A6366
:1036F000BB6A012B0BD17B689B6843F006027B6899
:103700009A607B689B6843F020027B689A60FB7B31
:1037100018461037BD46BDE8804004B0704780B4FD
:1037200083B000AF78607B689B6823F001027B6800
:103730009A60002318460C37BD465DF8047B70473D
:1037400080B582B000AF78600B46FB707B68DB68A9
:1037500023F0C0427B68DA60FB78012B06D17B68DE
:10376000DB6843F000527B68DA600BE0FB78002BEB
:1037700006D17B68DB6843F080427B68DA6001E059
:10378000012303E03220FDF705FE00231846083729
:10379000BD4680BD84B080B586B000AF786007F1CB
:1037A000240080E80E000023FB757B68FB6000238B
:1037B0003B6109E07A683B6940339B001344002277
:1037C0005A603B6901333B613B690E2BF2D9FB6CBC
:1037D000002B1CD1FB6803F500635B68FA6802F5F7
:1037E000006243F0020353607B689B6B43F400125A
:1037F0007B689A637B689B6B23F400227B689A63E7
:103800007B689B6B23F480227B689A630BE07B6868
:103810009B6B23F400127B689A637B689B6B43F479
:1038200000227B689A63FB6803F560631A460023F5
:103830001360FB6803F500631946FB6803F500633A
:103840001A460B681360BB6B012B0CD1FB6A002B73
:1038500004D10021786800F049F908E00121786876
:1038600000F044F903E00321786800F03FF91021EB
:10387000786800F0F3F80346002B01D00123FB75B4
:10388000786800F011F90346002B01D00123FB7585
:10389000FB6803F500631A4600231361FB6803F518
:1038A00000631A4600235361FB6803F500631A4660
:1038B0000023D36100233B6143E03B695A01FB686D
:1038C000134403F510631B6803F00043B3F1004F8A
:1038D00018D13B69002B0AD13B695A01FB6813449C
:1038E00003F510631A464FF00063136013E03B6961
:1038F0005A01FB68134403F510631A464FF09043D6
:10390000136008E03B695A01FB68134403F5106338
:103910001A46002313603B695A01FB68134403F500
:1039200010631A46002313613B695A01FB68134474
:1039300003F510631A464FF67F3393603B690133FA
:103940003B617B6A3A699A42B7D300233B6143E00B
:103950003B695A01FB68134403F530631B6803F0AD
:103960000043B3F1004F18D13B69002B0AD13B69EA
:103970005A01FB68134403F530631A464FF00063A5
:10398000136013E03B695A01FB68134403F530638D
:103990001A464FF09043136008E03B695A01FB68F8
:1039A000134403F530631A46002313603B695A0140
:1039B000FB68134403F530631A46002313613B6927
:1039C0005A01FB68134403F530631A464FF67F3300
:1039D00093603B6901333B617B6A3A699A42B7D392
:1039E000FB6803F500631B69FA6802F5006223F4C3
:1039F000807313617B6800229A617B686FF080425C
:103A00005A613B6B002B05D17B689B6943F0100228
:103A10007B689A617B689A690F4B13437A6893615C
:103A2000FB6B002B05D07B689B6943F008027B6829
:103A30009A61FB6C012B07D17B689B6943F0804343
:103A400043F004037A689361FB7D18461837BD463E
:103A5000BDE8804004B0704700383C8080B485B039
:103A600000AF786039600023FB603B689B0143F046
:103A700020027B681A61FB680133FB60FB68094A1E
:103A8000934201D9032306E07B681B6903F02003FE
:103A9000202BF0D0002318461437BD465DF8047B78
:103AA000704700BF400D030080B485B000AF786060
:103AB0000023FB607B6810221A61FB680133FB6006
:103AC000FB68094A934201D9032306E07B681B691E
:103AD00003F01003102BF0D0002318461437BD4616
:103AE0005DF8047B704700BF400D030080B485B0D3
:103AF00000AF78600B46FB707B68FB60FB6803F5EA
:103B000000631A68FB78F96801F5006113430B60E4
:103B1000002318461437BD465DF8047B704780B417
:103B200085B000AF78607B68FB60FB6803F560637D
:103B30001B68FA6802F5606223F003031360FB68F8
:103B400003F500635B68FA6802F5006243F0020364
:103B50005360002318461437BD465DF8047B704758
:103B600080B485B000AF78600023FB60FB68013350
:103B7000FB60FB68134A934201D903231BE07B6877
:103B80001B69002BF2DA0023FB607B681B6943F0A2
:103B900001027B681A61FB680133FB60FB68094A1C
:103BA000934201D9032306E07B681B6903F00103FC
:103BB000012BF0D0002318461437BD465DF8047B76
:103BC000704700BF400D0300014B1868704700BFED
:103BD0000C00002070B50D4E0D4CA41BA410002548
:103BE000A54209D10B4E0C4C00F004FFA41BA410FD
:103BF0000025A54205D170BD56F8253098470135FE
:103C0000EEE756F8253098470135F2E7EC4A02080E
:103C1000EC4A0208EC4A0208F04A02080244034651
:103C2000934200D1704703F8011BF9E70FB40A4B28
:103C300013B51C6824B1A36913B9204600F04EF8EF
:103C400005AB049AA1680193204600F055F902B033
:103C5000BDE8104004B070470C000020002310B5F0
:103C60000446C0E90033836081814366C281C0E9B4
:103C700004338361194608225C30FFF7CFFF054B00
:103C80006362054BA362054BE362054B2462236329
:103C900010BD00BF5544020877440208AF44020833
:103CA000D3440208014900F085B800BFAD470208BF
:103CB00070B54A1E682555430E4605F1740100F0A3
:103CC00097F8044640B10021C0E900160C30A0600E
:103CD00005F16802FFF7A2FF204670BD836910B5A9
:103CE000044633BBC0E912330365124B124A1B680A
:103CF0008262984204BF0123836100F01FF8606074
:103D0000204600F01BF8A060204600F017F80022C3
:103D1000E06004216068FFF7A1FF01220921A0688B
:103D2000FFF79CFF02221221E068FFF797FF0123B3
:103D3000A36110BD4C4A0208A53C0208F8B51B4B14
:103D40001E68B369074613B93046FFF7C7FF483608
:103D5000D6E90134013B03D5336833B13668F7E760
:103D6000B4F90C506DB16834F4E704213846FFF71C
:103D70009FFF30600028F1D10C233B6004462046B1
:103D8000F8BD0B4B6566C4E90055A560C4E9033571
:103D9000C4E905550822294604F15C00FFF73EFFFF
:103DA000C4E90D55C4E91255E9E700BF4C4A0208C1
:103DB0000100FFFF2DE9F8438046894600F14804E1
:103DC000002614B93046BDE8F883D4E90175013FF7
:103DD00001D52468F5E7AB89012B07D9B5F90E3079
:103DE000013303D029464046C84706436835EEE70D
:103DF00070B5CD1C25F0030508350C2D38BF0C25FA
:103E0000002D064601DBA94203D90C2333600020B4
:103E100070BD00F06BFD214A1468214691B9204C19
:103E200023681BB9304600F005FB20602946304668
:103E300000F000FB431C24D10C233360304600F01B
:103E400056FDE4E70B685B1B18D40B2B0FD90B60F6
:103E5000CD50CC18304600F04AFD04F10B00231D74
:103E600020F00700C31AD3D05A42E250D0E78C4268
:103E70004B6816BF636013600C46EBE70C4649685D
:103E8000CCE7C41C24F00304A04205D0211A30461C
:103E900000F0D0FA0130CFD02560DBE790000020A1
:103EA000940000209368013B002B10B4936008DA63
:103EB0009469A34201DB0A2903D15DF8044B00F0A9
:103EC0000DBB1368581C1060197008465DF8044B50
:103ED0007047F8B506460F461446D518AC4201D1D6
:103EE000002007E03A4614F8011B3046FFF7DAFFDE
:103EF000431CF3D1F8BD00002DE9F04F0C469DB0F6
:103F000017461D46064618B183690BB9FFF7E6FE52
:103F10007C4B9C4258D17468A38918075ED52369ED
:103F2000002B5BD00023099320238DF82930302308
:103F30008DF82A3003954FF0010BB846454615F829
:103F4000013B0BB1252B54D1B8EB070A0BD05346DC
:103F50003A4621463046FFF7BCFF013000F0C280F0
:103F6000099B5344099398F80030002B00F0BA8065
:103F700000234FF0FF32CDE90523049307938DF81A
:103F800053301A93A846052218F8011B5E48FCF727
:103F90002FFB049B78BBD90644BF20228DF8532009
:103FA0001A0744BF2B228DF853202A782A2A2AD0B8
:103FB000079AA84600200A25414611F8013B303BEC
:103FC000092B69D960B324E0504B9C4201D1B468FD
:103FD000A2E74F4B9C4208BFF4689DE7214630465C
:103FE00000F0E0FA00289DD04FF0FF301DB0BDE892
:103FF000F08FA846A2E7444A801A0BFA00F0184353
:1040000004904546BEE7039A111D12680391002AE9
:1040100001DB079204E0524243F00203079204934B
:1040200098F800302E2B0ED198F801302A2B38D179
:10403000039B1A1D1B680392002BB8BF4FF0FF3380
:1040400008F102080593334D98F800100322284622
:10405000FCF7CEFA40B14023401B03FA00F0049B6A
:10406000034308F10108049398F800102A488DF8DA
:104070002810062208F10107FCF7BAFA002837D009
:10408000264B1BBB039B073323F007030833039323
:10409000099B4B44099350E705FB023201208846F7
:1040A0008AE7002308F10108059319460A254046CE
:1040B00010F8012B303A092A03D9002BC3D00591FF
:1040C000C1E705FB012101238046F0E703AB009324
:1040D0002246134B04A93046AFF30080B0F1FF3FF6
:1040E0008146D5D1A3895B063FF57EAF09987DE770
:1040F00003AB009322460A4B04A9304600F088F82F
:10410000ECE700BF704A0208B04A0208904A020871
:10411000504A0208B64A0208BA4A020800000000E3
:10412000D33E02082DE9F04791461F468A680B6985
:10413000DDF820809342B8BF1346C9F8003091F8EB
:10414000432006460C4612B10133C9F800302368FB
:10415000990642BFD9F800300233C9F8003025680B
:1041600015F0060507D104F1190AE368D9F8002013
:104170009B1AAB4228DC94F843302268003318BF06
:10418000012392062DD404F1430239463046C0473C
:10419000013020D02368E568D9F8002003F0060339
:1041A000042B08BFAD1AA36822690CBF25EAE57588
:1041B00000259342C4BF9B1AED184FF000091A3432
:1041C0004D451AD1002008E00123524639463046B9
:1041D000C047013003D14FF0FF30BDE8F087013513
:1041E000C3E7E1185A1C302081F84300224494F8B8
:1041F000451082F843100233C5E7012322463946B1
:104200003046C0470130E6D009F10109D8E7000087
:104210002DE9F04301F1430C0C46097E85B06E296F
:104220001746064698460C9A00F0B38022D86329B8
:1042300036D00AD8002900F0B980582900F08380D0
:1042400004F1420584F8421032E0642901D0692962
:10425000F6D120681368050603F104012AD51B680E
:104260001160002B03DA2D225B4284F843206F4853
:104270000A2239E0732900F09D8008D86F2920D0E8
:104280007029DDD1236843F02003236003E0752902
:1042900017D07829D4D1782384F84530644855E084
:1042A0001368191D1B68116004F1420584F842303F
:1042B00001238CE01B68116010F0400F18BF1BB287
:1042C000CFE713682568181D1060280601D51B6804
:1042D00002E06806FBD51B8854486F2914BF0A22E8
:1042E0000822002184F843106568A560002DC0F203
:1042F0009580216821F004012160002B3DD1002D23
:1043000040F08E806546082A0BD12368DB0708D56C
:10431000236962689A42DEBF302305F8013C05F14B
:10432000FF35ACEB05032361CDF800803B4603AAC3
:1043300021463046FFF7F6FE01304DD14FF0FF30F9
:1043400005B0BDE8F083394884F84510136821684A
:104350001D1D1B6815600A060BD5CA0744BF41F036
:10436000200121601BB9226822F020022260102265
:10437000B7E74D0648BF9BB2EFE76546B3FBF2F1E6
:1043800002FB1133C35C05F8013D0B460029F5D152
:10439000B9E7136825686169181D106028061B6855
:1043A00001D5196002E06A06FBD51980002323615C
:1043B0006546B9E71368191D11601D686268002120
:1043C0002846FCF715F908B1401B6060636823615B
:1043D000002384F84330A7E723692A46394630464C
:1043E000C0470130AAD023689B0713D4E068039B21
:1043F0009842B8BF1846A3E701234A4639463046DB
:10440000C04701309AD00135E368039A9B1AAB424A
:10441000F2DCEBE7002504F11909F5E7002BACD13C
:10442000037884F8423004F142056CE7C14A02087F
:10443000D24A020838B5064C0023054608462360D8
:10444000FCF7CAFE431C02D1236803B12B6038BDC0
:104450002C05002010B50C46B1F90E1000F096FAAC
:104460000028ABBF636DA3891B1823F48053ACBF36
:104470006365A38110BD2DE9F0411F468B89DB05E3
:1044800005460C46164605D502230022B1F90E104A
:1044900000F0B6F9A389B4F90E1023F48053A38178
:1044A00032463B462846BDE8F04100F069B810B5F9
:1044B0000C46B1F90E1000F0A3F9431CA38915BFF7
:1044C000606523F4805343F48053A38118BFA38114
:1044D00010BDB1F90E1000F0D3B80000F8B50E46CB
:1044E0001446054618B183690BB9FFF7F7FB214B5A
:1044F0009C422AD16C68A369A360A3891A072ED5B0
:10450000236963B323692068C01A6369F6B28342E2
:10451000374604DC2146284600F048F928BBA3684A
:10452000013BA36023685A1C22601E70636901303E
:10453000834204D0A389DB0719D50A2E17D121465F
:10454000284600F033F990B10FE00B4B9C4201D1AB
:10455000AC68D0E7094B9C4208BFEC68CBE721462A
:10456000284600F01FF80028CCD04FF0FF3738461F
:10457000F8BD00BF704A0208904A0208504A02087B
:1045800038B5074C054608461146002222601A46F7
:10459000FCF7D1FD431C02D1236803B12B6038BD69
:1045A0002C050020324B70B51D6806460C4625B11F
:1045B000AB6913B92846FFF791FB2E4B9C420FD1F4
:1045C0006C68B4F90C309AB215072CD4D00611D40B
:1045D0000922326043F04003A3814FF0FF303EE0F8
:1045E000254B9C4201D1AC68EBE7244B9C4208BFB1
:1045F000EC68E6E7510712D5616B41B104F1440361
:10460000994202D0304600F073F900236363A38916
:1046100023F02403A3810023636023692360A3891B
:1046200043F00803A38123694BB9A38903F42073E2
:10463000B3F5007F03D02146304600F017F9A28978
:1046400012F001030CD00023A36063695B42A361F5
:10465000236953B9B4F90C3013F08000BAD170BD9E
:10466000920758BF6369A360F2E70020F7E700BF35
:104670000C000020704A0208904A0208504A0208C2
:1046800038B5064C0023054608462360FCF76FFD4D
:10469000431C02D1236803B12B6038BD2C050020D8
:1046A0008A892DE9F041054610070C4658D44B681D
:1046B000002B05DC0B6C002B02DC0020BDE8F08138
:1046C000E66A002EF9D0002312F480522F68216A86
:1046D0002B6032D0606DA3895A0705D56368C01A74
:1046E000636B0BB1236CC01A00230246E66A216A91
:1046F0002846B047431CA38906D129681D2948D8FC
:10470000294ACA40D60744D500226260D9042269EA
:10471000226004D5421C01D12B6803B96065616B2E
:104720002F600029C9D004F14403994202D02846E1
:1047300000F0DEF800206063C0E701232846B047A0
:10474000411CC8D12B68002BC5D01D2B01D0162BC6
:1047500001D12F60B1E7A38943F04003A381ADE706
:104760000F69002FA9D093070E6808BF4B690F602F
:1047700018BF0023A6EB07088B60B8F1000F9CDD83
:1047800043463A46216AA66A2846B047002806DC16
:10479000A38943F04003A3814FF0FF308EE7074425
:1047A000A8EB0008E9E700BF0100402038B50B691D
:1047B00005460C46DBB118B183690BB9FFF78EFAD9
:1047C0000C4B9C4209D16C68B4F90C307BB121468A
:1047D0002846BDE83840FFF763BF074B9C4201D134
:1047E000AC68F1E7054B9C4208BFEC68ECE70020A1
:1047F00038BD00BF704A0208904A0208504A0208B9
:1048000038B5074C054608461146002222601A4674
:10481000FCF7D4FC431C02D1236803B12B6038BDE4
:104820002C05002070B50E46B1F90E10002996B087
:1048300014461D4607DA00232B60B3891A0610D4EC
:104840004FF480630EE06A4600F0B2F80028F2DB15
:10485000019A02F47042A2F500535A425A412A606A
:10486000EEE740230020236016B070BD8B8973B53E
:104870009D0706460C4607D504F1470323602361D4
:104880000123636102B070BD01AB6A46FFF7CAFF46
:10489000009905463046FFF7ABFA48B9B4F90C3039
:1048A0009A05EFD423F0030343F00203A381E3E767
:1048B0000D4BB362A389206043F08003A381009B6A
:1048C0006361019B20615BB1B4F90E10304600F0CA
:1048D00081F828B1A38923F0030343F00103A381E6
:1048E000A3891D43A581CDE7A53C02087047704709
:1048F00038B50546002945D051F8043C0C1F002B63
:10490000B8BFE418FFF7F2FF1F4A1368104633B927
:10491000636014602846BDE83840FFF7E8BFA34253
:104920000CD921686218934204BF1A685B686360FF
:1049300004BF521822600460ECE713465A680AB1BB
:10494000A242FAD919685818A0420BD12068014434
:10495000581882421960DDD1106852685A600144CB
:104960001960D7E702D90C232B60D3E72068211800
:104970008A4204BF11685268626004BF091821604E
:104980005C60C7E738BD00BF9000002038B5074C19
:10499000054608461146002222601A46FCF7AEFB87
:1049A000431C02D1236803B12B6038BD2C050020C5
:1049B00038B5074C00230546084611462360FCF72E
:1049C000E2FB431C02D1236803B12B6038BD00BF5A
:1049D0002C05002038B5064C002305460846236008
:1049E000FCF7E1FB431C02D1236803B12B6038BD07
:1049F0002C050020F8B500BFF8BC08BC9E467047E7
:0C4A0000F8B500BFF8BC08BC9E4670472B
:104A0C004170702053544152544544202D207665FA
:104A1C007273696F6E202564202D20435243203021
:104A2C0078256C780A0000000000000000000000EF
:104A3C000102030406070809000000000102030438
:104A4C00100000200000000000000000000000002A
:104A5C00000000000000000000000000000000004A
:104A6C00000000000000000000000000000000003A
:104A7C00000000000000000000000000000000002A
:104A8C00000000000000000000000000000000001A
:104A9C00000000000000000000000000000000000A
:104AAC0000000000232D302B2000686C4C00656644
:104ABC006745464700303132333435363738394163
:104ACC004243444546003031323334353637383979
:084ADC0061626364656600007D
:084AE400DCBBFF7F01000000B4
:044AEC00D5050208E2
:044AF000B105020802
:104AF4000024F40010000000010000001000002059
:104B040000000000704A0208904A0208504A020855
:104B14000000000000000000000000000000000091
:104B24000000000000000000000000000000000081
:104B34000000000000000000000000000000000071
:104B44000000000000000000000000000000000061
:104B54000000000000000000000000000000000051
:040000050802125D7E
:00000001FF
